{
  "_format": "hh-sol-artifact-1",
  "contractName": "WavyNFT",
  "sourceName": "contracts/WavyNFT.sol",
  "abi": [
    {
      "inputs": [],
      "stateMutability": "nonpayable",
      "type": "constructor"
    },
    {
      "anonymous": false,
      "inputs": [
        {
          "indexed": true,
          "internalType": "address",
          "name": "owner",
          "type": "address"
        },
        {
          "indexed": true,
          "internalType": "address",
          "name": "approved",
          "type": "address"
        },
        {
          "indexed": true,
          "internalType": "uint256",
          "name": "tokenId",
          "type": "uint256"
        }
      ],
      "name": "Approval",
      "type": "event"
    },
    {
      "anonymous": false,
      "inputs": [
        {
          "indexed": true,
          "internalType": "address",
          "name": "owner",
          "type": "address"
        },
        {
          "indexed": true,
          "internalType": "address",
          "name": "operator",
          "type": "address"
        },
        {
          "indexed": false,
          "internalType": "bool",
          "name": "approved",
          "type": "bool"
        }
      ],
      "name": "ApprovalForAll",
      "type": "event"
    },
    {
      "anonymous": false,
      "inputs": [
        {
          "indexed": true,
          "internalType": "address",
          "name": "from",
          "type": "address"
        },
        {
          "indexed": true,
          "internalType": "address",
          "name": "to",
          "type": "address"
        },
        {
          "indexed": true,
          "internalType": "uint256",
          "name": "tokenId",
          "type": "uint256"
        }
      ],
      "name": "Transfer",
      "type": "event"
    },
    {
      "inputs": [
        {
          "internalType": "address",
          "name": "to",
          "type": "address"
        },
        {
          "internalType": "uint256",
          "name": "tokenId",
          "type": "uint256"
        }
      ],
      "name": "approve",
      "outputs": [],
      "stateMutability": "nonpayable",
      "type": "function"
    },
    {
      "inputs": [
        {
          "internalType": "address",
          "name": "addr",
          "type": "address"
        },
        {
          "internalType": "string",
          "name": "tokenURI",
          "type": "string"
        }
      ],
      "name": "awardItem",
      "outputs": [
        {
          "internalType": "uint256",
          "name": "",
          "type": "uint256"
        }
      ],
      "stateMutability": "nonpayable",
      "type": "function"
    },
    {
      "inputs": [
        {
          "internalType": "address",
          "name": "owner",
          "type": "address"
        }
      ],
      "name": "balanceOf",
      "outputs": [
        {
          "internalType": "uint256",
          "name": "",
          "type": "uint256"
        }
      ],
      "stateMutability": "view",
      "type": "function"
    },
    {
      "inputs": [
        {
          "internalType": "uint256",
          "name": "tokenId",
          "type": "uint256"
        }
      ],
      "name": "getApproved",
      "outputs": [
        {
          "internalType": "address",
          "name": "",
          "type": "address"
        }
      ],
      "stateMutability": "view",
      "type": "function"
    },
    {
      "inputs": [
        {
          "internalType": "address",
          "name": "owner",
          "type": "address"
        },
        {
          "internalType": "address",
          "name": "operator",
          "type": "address"
        }
      ],
      "name": "isApprovedForAll",
      "outputs": [
        {
          "internalType": "bool",
          "name": "",
          "type": "bool"
        }
      ],
      "stateMutability": "view",
      "type": "function"
    },
    {
      "inputs": [],
      "name": "name",
      "outputs": [
        {
          "internalType": "string",
          "name": "",
          "type": "string"
        }
      ],
      "stateMutability": "view",
      "type": "function"
    },
    {
      "inputs": [
        {
          "internalType": "uint256",
          "name": "tokenId",
          "type": "uint256"
        }
      ],
      "name": "ownerOf",
      "outputs": [
        {
          "internalType": "address",
          "name": "",
          "type": "address"
        }
      ],
      "stateMutability": "view",
      "type": "function"
    },
    {
      "inputs": [
        {
          "internalType": "address",
          "name": "from",
          "type": "address"
        },
        {
          "internalType": "address",
          "name": "to",
          "type": "address"
        },
        {
          "internalType": "uint256",
          "name": "tokenId",
          "type": "uint256"
        }
      ],
      "name": "safeTransferFrom",
      "outputs": [],
      "stateMutability": "nonpayable",
      "type": "function"
    },
    {
      "inputs": [
        {
          "internalType": "address",
          "name": "from",
          "type": "address"
        },
        {
          "internalType": "address",
          "name": "to",
          "type": "address"
        },
        {
          "internalType": "uint256",
          "name": "tokenId",
          "type": "uint256"
        },
        {
          "internalType": "bytes",
          "name": "_data",
          "type": "bytes"
        }
      ],
      "name": "safeTransferFrom",
      "outputs": [],
      "stateMutability": "nonpayable",
      "type": "function"
    },
    {
      "inputs": [
        {
          "internalType": "address",
          "name": "operator",
          "type": "address"
        },
        {
          "internalType": "bool",
          "name": "approved",
          "type": "bool"
        }
      ],
      "name": "setApprovalForAll",
      "outputs": [],
      "stateMutability": "nonpayable",
      "type": "function"
    },
    {
      "inputs": [
        {
          "internalType": "bytes4",
          "name": "interfaceId",
          "type": "bytes4"
        }
      ],
      "name": "supportsInterface",
      "outputs": [
        {
          "internalType": "bool",
          "name": "",
          "type": "bool"
        }
      ],
      "stateMutability": "view",
      "type": "function"
    },
    {
      "inputs": [],
      "name": "symbol",
      "outputs": [
        {
          "internalType": "string",
          "name": "",
          "type": "string"
        }
      ],
      "stateMutability": "view",
      "type": "function"
    },
    {
      "inputs": [
        {
          "internalType": "uint256",
          "name": "tokenId",
          "type": "uint256"
        }
      ],
      "name": "tokenURI",
      "outputs": [
        {
          "internalType": "string",
          "name": "",
          "type": "string"
        }
      ],
      "stateMutability": "view",
      "type": "function"
    },
    {
      "inputs": [
        {
          "internalType": "address",
          "name": "from",
          "type": "address"
        },
        {
          "internalType": "address",
          "name": "to",
          "type": "address"
        },
        {
          "internalType": "uint256",
          "name": "tokenId",
          "type": "uint256"
        }
      ],
      "name": "transferFrom",
      "outputs": [],
      "stateMutability": "nonpayable",
      "type": "function"
    }
  ],
  "bytecode": "0x60806040523480156200001157600080fd5b506040518060400160405280600781526020017f576176794e4654000000000000000000000000000000000000000000000000008152506040518060400160405280600481526020017f5741565900000000000000000000000000000000000000000000000000000000815250816000908051906020019062000096929190620000b8565b508060019080519060200190620000af929190620000b8565b505050620001cd565b828054620000c69062000168565b90600052602060002090601f016020900481019282620000ea576000855562000136565b82601f106200010557805160ff191683800117855562000136565b8280016001018555821562000136579182015b828111156200013557825182559160200191906001019062000118565b5b50905062000145919062000149565b5090565b5b80821115620001645760008160009055506001016200014a565b5090565b600060028204905060018216806200018157607f821691505b602082108114156200019857620001976200019e565b5b50919050565b7f4e487b7100000000000000000000000000000000000000000000000000000000600052602260045260246000fd5b612ba580620001dd6000396000f3fe608060405234801561001057600080fd5b50600436106100ea5760003560e01c806370a082311161008c578063b88d4fde11610066578063b88d4fde1461025b578063c87b56dd14610277578063cf378343146102a7578063e985e9c5146102d7576100ea565b806370a08231146101f157806395d89b4114610221578063a22cb4651461023f576100ea565b8063095ea7b3116100c8578063095ea7b31461016d57806323b872dd1461018957806342842e0e146101a55780636352211e146101c1576100ea565b806301ffc9a7146100ef57806306fdde031461011f578063081812fc1461013d575b600080fd5b61010960048036038101906101049190611c03565b610307565b6040516101169190612015565b60405180910390f35b6101276103e9565b6040516101349190612030565b60405180910390f35b61015760048036038101906101529190611c5d565b61047b565b6040516101649190611fae565b60405180910390f35b61018760048036038101906101829190611bc3565b610500565b005b6101a3600480360381019061019e9190611a51565b610618565b005b6101bf60048036038101906101ba9190611a51565b610678565b005b6101db60048036038101906101d69190611c5d565b610698565b6040516101e89190611fae565b60405180910390f35b61020b600480360381019061020691906119e4565b61074a565b6040516102189190612252565b60405180910390f35b610229610802565b6040516102369190612030565b60405180910390f35b61025960048036038101906102549190611b27565b610894565b005b61027560048036038101906102709190611aa4565b6108aa565b005b610291600480360381019061028c9190611c5d565b61090c565b60405161029e9190612030565b60405180910390f35b6102c160048036038101906102bc9190611b67565b610a5e565b6040516102ce9190612252565b60405180910390f35b6102f160048036038101906102ec9190611a11565b610a96565b6040516102fe9190612015565b60405180910390f35b60007f80ac58cd000000000000000000000000000000000000000000000000000000007bffffffffffffffffffffffffffffffffffffffffffffffffffffffff1916827bffffffffffffffffffffffffffffffffffffffffffffffffffffffff191614806103d257507f5b5e139f000000000000000000000000000000000000000000000000000000007bffffffffffffffffffffffffffffffffffffffffffffffffffffffff1916827bffffffffffffffffffffffffffffffffffffffffffffffffffffffff1916145b806103e257506103e182610b2a565b5b9050919050565b6060600080546103f8906124a8565b80601f0160208091040260200160405190810160405280929190818152602001828054610424906124a8565b80156104715780601f1061044657610100808354040283529160200191610471565b820191906000526020600020905b81548152906001019060200180831161045457829003601f168201915b5050505050905090565b600061048682610b94565b6104c5576040517f08c379a00000000000000000000000000000000000000000000000000000000081526004016104bc906121b2565b60405180910390fd5b6004600083815260200190815260200160002060009054906101000a900473ffffffffffffffffffffffffffffffffffffffff169050919050565b600061050b82610698565b90508073ffffffffffffffffffffffffffffffffffffffff168373ffffffffffffffffffffffffffffffffffffffff16141561057c576040517f08c379a000000000000000000000000000000000000000000000000000000000815260040161057390612212565b60405180910390fd5b8073ffffffffffffffffffffffffffffffffffffffff1661059b610c00565b73ffffffffffffffffffffffffffffffffffffffff1614806105ca57506105c9816105c4610c00565b610a96565b5b610609576040517f08c379a0000000000000000000000000000000000000000000000000000000008152600401610600906120f2565b60405180910390fd5b6106138383610c08565b505050565b610629610623610c00565b82610cc1565b610668576040517f08c379a000000000000000000000000000000000000000000000000000000000815260040161065f90612232565b60405180910390fd5b610673838383610d9f565b505050565b610693838383604051806020016040528060008152506108aa565b505050565b6000806002600084815260200190815260200160002060009054906101000a900473ffffffffffffffffffffffffffffffffffffffff169050600073ffffffffffffffffffffffffffffffffffffffff168173ffffffffffffffffffffffffffffffffffffffff161415610741576040517f08c379a000000000000000000000000000000000000000000000000000000000815260040161073890612132565b60405180910390fd5b80915050919050565b60008073ffffffffffffffffffffffffffffffffffffffff168273ffffffffffffffffffffffffffffffffffffffff1614156107bb576040517f08c379a00000000000000000000000000000000000000000000000000000000081526004016107b290612112565b60405180910390fd5b600360008373ffffffffffffffffffffffffffffffffffffffff1673ffffffffffffffffffffffffffffffffffffffff168152602001908152602001600020549050919050565b606060018054610811906124a8565b80601f016020809104026020016040519081016040528092919081815260200182805461083d906124a8565b801561088a5780601f1061085f5761010080835404028352916020019161088a565b820191906000526020600020905b81548152906001019060200180831161086d57829003601f168201915b5050505050905090565b6108a661089f610c00565b8383610ffb565b5050565b6108bb6108b5610c00565b83610cc1565b6108fa576040517f08c379a00000000000000000000000000000000000000000000000000000000081526004016108f190612232565b60405180910390fd5b61090684848484611168565b50505050565b606061091782610b94565b610956576040517f08c379a000000000000000000000000000000000000000000000000000000000815260040161094d90612192565b60405180910390fd5b6000600660008481526020019081526020016000208054610976906124a8565b80601f01602080910402602001604051908101604052809291908181526020018280546109a2906124a8565b80156109ef5780601f106109c4576101008083540402835291602001916109ef565b820191906000526020600020905b8154815290600101906020018083116109d257829003601f168201915b505050505090506000610a006111c4565b9050600081511415610a16578192505050610a59565b600082511115610a4b578082604051602001610a33929190611f8a565b60405160208183030381529060405292505050610a59565b610a54846111db565b925050505b919050565b6000610a6a6007611282565b6000610a766007611298565b9050610a8284826112a6565b610a8c8184611474565b8091505092915050565b6000600560008473ffffffffffffffffffffffffffffffffffffffff1673ffffffffffffffffffffffffffffffffffffffff16815260200190815260200160002060008373ffffffffffffffffffffffffffffffffffffffff1673ffffffffffffffffffffffffffffffffffffffff16815260200190815260200160002060009054906101000a900460ff16905092915050565b60007f01ffc9a7000000000000000000000000000000000000000000000000000000007bffffffffffffffffffffffffffffffffffffffffffffffffffffffff1916827bffffffffffffffffffffffffffffffffffffffffffffffffffffffff1916149050919050565b60008073ffffffffffffffffffffffffffffffffffffffff166002600084815260200190815260200160002060009054906101000a900473ffffffffffffffffffffffffffffffffffffffff1673ffffffffffffffffffffffffffffffffffffffff1614159050919050565b600033905090565b816004600083815260200190815260200160002060006101000a81548173ffffffffffffffffffffffffffffffffffffffff021916908373ffffffffffffffffffffffffffffffffffffffff160217905550808273ffffffffffffffffffffffffffffffffffffffff16610c7b83610698565b73ffffffffffffffffffffffffffffffffffffffff167f8c5be1e5ebec7d5bd14f71427d1e84f3dd0314c0f7b2291e5b200ac8c7c3b92560405160405180910390a45050565b6000610ccc82610b94565b610d0b576040517f08c379a0000000000000000000000000000000000000000000000000000000008152600401610d02906120d2565b60405180910390fd5b6000610d1683610698565b90508073ffffffffffffffffffffffffffffffffffffffff168473ffffffffffffffffffffffffffffffffffffffff161480610d8557508373ffffffffffffffffffffffffffffffffffffffff16610d6d8461047b565b73ffffffffffffffffffffffffffffffffffffffff16145b80610d965750610d958185610a96565b5b91505092915050565b8273ffffffffffffffffffffffffffffffffffffffff16610dbf82610698565b73ffffffffffffffffffffffffffffffffffffffff1614610e15576040517f08c379a0000000000000000000000000000000000000000000000000000000008152600401610e0c906121d2565b60405180910390fd5b600073ffffffffffffffffffffffffffffffffffffffff168273ffffffffffffffffffffffffffffffffffffffff161415610e85576040517f08c379a0000000000000000000000000000000000000000000000000000000008152600401610e7c90612092565b60405180910390fd5b610e908383836114e8565b610e9b600082610c08565b6001600360008573ffffffffffffffffffffffffffffffffffffffff1673ffffffffffffffffffffffffffffffffffffffff1681526020019081526020016000206000828254610eeb91906123be565b925050819055506001600360008473ffffffffffffffffffffffffffffffffffffffff1673ffffffffffffffffffffffffffffffffffffffff1681526020019081526020016000206000828254610f429190612337565b92505081905550816002600083815260200190815260200160002060006101000a81548173ffffffffffffffffffffffffffffffffffffffff021916908373ffffffffffffffffffffffffffffffffffffffff160217905550808273ffffffffffffffffffffffffffffffffffffffff168473ffffffffffffffffffffffffffffffffffffffff167fddf252ad1be2c89b69c2b068fc378daa952ba7f163c4a11628f55a4df523b3ef60405160405180910390a4505050565b8173ffffffffffffffffffffffffffffffffffffffff168373ffffffffffffffffffffffffffffffffffffffff16141561106a576040517f08c379a0000000000000000000000000000000000000000000000000000000008152600401611061906120b2565b60405180910390fd5b80600560008573ffffffffffffffffffffffffffffffffffffffff1673ffffffffffffffffffffffffffffffffffffffff16815260200190815260200160002060008473ffffffffffffffffffffffffffffffffffffffff1673ffffffffffffffffffffffffffffffffffffffff16815260200190815260200160002060006101000a81548160ff0219169083151502179055508173ffffffffffffffffffffffffffffffffffffffff168373ffffffffffffffffffffffffffffffffffffffff167f17307eab39ab6107e8899845ad3d59bd9653f200f220920489ca2b5937696c318360405161115b9190612015565b60405180910390a3505050565b611173848484610d9f565b61117f848484846114ed565b6111be576040517f08c379a00000000000000000000000000000000000000000000000000000000081526004016111b590612052565b60405180910390fd5b50505050565b606060405180602001604052806000815250905090565b60606111e682610b94565b611225576040517f08c379a000000000000000000000000000000000000000000000000000000000815260040161121c906121f2565b60405180910390fd5b600061122f6111c4565b9050600081511161124f576040518060200160405280600081525061127a565b8061125984611684565b60405160200161126a929190611f8a565b6040516020818303038152906040525b915050919050565b6001816000016000828254019250508190555050565b600081600001549050919050565b600073ffffffffffffffffffffffffffffffffffffffff168273ffffffffffffffffffffffffffffffffffffffff161415611316576040517f08c379a000000000000000000000000000000000000000000000000000000000815260040161130d90612172565b60405180910390fd5b61131f81610b94565b1561135f576040517f08c379a000000000000000000000000000000000000000000000000000000000815260040161135690612072565b60405180910390fd5b61136b600083836114e8565b6001600360008473ffffffffffffffffffffffffffffffffffffffff1673ffffffffffffffffffffffffffffffffffffffff16815260200190815260200160002060008282546113bb9190612337565b92505081905550816002600083815260200190815260200160002060006101000a81548173ffffffffffffffffffffffffffffffffffffffff021916908373ffffffffffffffffffffffffffffffffffffffff160217905550808273ffffffffffffffffffffffffffffffffffffffff16600073ffffffffffffffffffffffffffffffffffffffff167fddf252ad1be2c89b69c2b068fc378daa952ba7f163c4a11628f55a4df523b3ef60405160405180910390a45050565b61147d82610b94565b6114bc576040517f08c379a00000000000000000000000000000000000000000000000000000000081526004016114b390612152565b60405180910390fd5b806006600084815260200190815260200160002090805190602001906114e39291906117f8565b505050565b505050565b600061150e8473ffffffffffffffffffffffffffffffffffffffff166117e5565b15611677578373ffffffffffffffffffffffffffffffffffffffff1663150b7a02611537610c00565b8786866040518563ffffffff1660e01b81526004016115599493929190611fc9565b602060405180830381600087803b15801561157357600080fd5b505af19250505080156115a457506040513d601f19601f820116820180604052508101906115a19190611c30565b60015b611627573d80600081146115d4576040519150601f19603f3d011682016040523d82523d6000602084013e6115d9565b606091505b5060008151141561161f576040517f08c379a000000000000000000000000000000000000000000000000000000000815260040161161690612052565b60405180910390fd5b805181602001fd5b63150b7a0260e01b7bffffffffffffffffffffffffffffffffffffffffffffffffffffffff1916817bffffffffffffffffffffffffffffffffffffffffffffffffffffffff19161491505061167c565b600190505b949350505050565b606060008214156116cc576040518060400160405280600181526020017f300000000000000000000000000000000000000000000000000000000000000081525090506117e0565b600082905060005b600082146116fe5780806116e79061250b565b915050600a826116f7919061238d565b91506116d4565b60008167ffffffffffffffff81111561171a57611719612641565b5b6040519080825280601f01601f19166020018201604052801561174c5781602001600182028036833780820191505090505b5090505b600085146117d95760018261176591906123be565b9150600a856117749190612554565b60306117809190612337565b60f81b81838151811061179657611795612612565b5b60200101907effffffffffffffffffffffffffffffffffffffffffffffffffffffffffffff1916908160001a905350600a856117d2919061238d565b9450611750565b8093505050505b919050565b600080823b905060008111915050919050565b828054611804906124a8565b90600052602060002090601f016020900481019282611826576000855561186d565b82601f1061183f57805160ff191683800117855561186d565b8280016001018555821561186d579182015b8281111561186c578251825591602001919060010190611851565b5b50905061187a919061187e565b5090565b5b8082111561189757600081600090555060010161187f565b5090565b60006118ae6118a984612292565b61226d565b9050828152602081018484840111156118ca576118c9612675565b5b6118d5848285612466565b509392505050565b60006118f06118eb846122c3565b61226d565b90508281526020810184848401111561190c5761190b612675565b5b611917848285612466565b509392505050565b60008135905061192e81612b13565b92915050565b60008135905061194381612b2a565b92915050565b60008135905061195881612b41565b92915050565b60008151905061196d81612b41565b92915050565b600082601f83011261198857611987612670565b5b813561199884826020860161189b565b91505092915050565b600082601f8301126119b6576119b5612670565b5b81356119c68482602086016118dd565b91505092915050565b6000813590506119de81612b58565b92915050565b6000602082840312156119fa576119f961267f565b5b6000611a088482850161191f565b91505092915050565b60008060408385031215611a2857611a2761267f565b5b6000611a368582860161191f565b9250506020611a478582860161191f565b9150509250929050565b600080600060608486031215611a6a57611a6961267f565b5b6000611a788682870161191f565b9350506020611a898682870161191f565b9250506040611a9a868287016119cf565b9150509250925092565b60008060008060808587031215611abe57611abd61267f565b5b6000611acc8782880161191f565b9450506020611add8782880161191f565b9350506040611aee878288016119cf565b925050606085013567ffffffffffffffff811115611b0f57611b0e61267a565b5b611b1b87828801611973565b91505092959194509250565b60008060408385031215611b3e57611b3d61267f565b5b6000611b4c8582860161191f565b9250506020611b5d85828601611934565b9150509250929050565b60008060408385031215611b7e57611b7d61267f565b5b6000611b8c8582860161191f565b925050602083013567ffffffffffffffff811115611bad57611bac61267a565b5b611bb9858286016119a1565b9150509250929050565b60008060408385031215611bda57611bd961267f565b5b6000611be88582860161191f565b9250506020611bf9858286016119cf565b9150509250929050565b600060208284031215611c1957611c1861267f565b5b6000611c2784828501611949565b91505092915050565b600060208284031215611c4657611c4561267f565b5b6000611c548482850161195e565b91505092915050565b600060208284031215611c7357611c7261267f565b5b6000611c81848285016119cf565b91505092915050565b611c93816123f2565b82525050565b611ca281612404565b82525050565b6000611cb3826122f4565b611cbd818561230a565b9350611ccd818560208601612475565b611cd681612684565b840191505092915050565b6000611cec826122ff565b611cf6818561231b565b9350611d06818560208601612475565b611d0f81612684565b840191505092915050565b6000611d25826122ff565b611d2f818561232c565b9350611d3f818560208601612475565b80840191505092915050565b6000611d5860328361231b565b9150611d6382612695565b604082019050919050565b6000611d7b601c8361231b565b9150611d86826126e4565b602082019050919050565b6000611d9e60248361231b565b9150611da98261270d565b604082019050919050565b6000611dc160198361231b565b9150611dcc8261275c565b602082019050919050565b6000611de4602c8361231b565b9150611def82612785565b604082019050919050565b6000611e0760388361231b565b9150611e12826127d4565b604082019050919050565b6000611e2a602a8361231b565b9150611e3582612823565b604082019050919050565b6000611e4d60298361231b565b9150611e5882612872565b604082019050919050565b6000611e70602e8361231b565b9150611e7b826128c1565b604082019050919050565b6000611e9360208361231b565b9150611e9e82612910565b602082019050919050565b6000611eb660318361231b565b9150611ec182612939565b604082019050919050565b6000611ed9602c8361231b565b9150611ee482612988565b604082019050919050565b6000611efc60298361231b565b9150611f07826129d7565b604082019050919050565b6000611f1f602f8361231b565b9150611f2a82612a26565b604082019050919050565b6000611f4260218361231b565b9150611f4d82612a75565b604082019050919050565b6000611f6560318361231b565b9150611f7082612ac4565b604082019050919050565b611f848161245c565b82525050565b6000611f968285611d1a565b9150611fa28284611d1a565b91508190509392505050565b6000602082019050611fc36000830184611c8a565b92915050565b6000608082019050611fde6000830187611c8a565b611feb6020830186611c8a565b611ff86040830185611f7b565b818103606083015261200a8184611ca8565b905095945050505050565b600060208201905061202a6000830184611c99565b92915050565b6000602082019050818103600083015261204a8184611ce1565b905092915050565b6000602082019050818103600083015261206b81611d4b565b9050919050565b6000602082019050818103600083015261208b81611d6e565b9050919050565b600060208201905081810360008301526120ab81611d91565b9050919050565b600060208201905081810360008301526120cb81611db4565b9050919050565b600060208201905081810360008301526120eb81611dd7565b9050919050565b6000602082019050818103600083015261210b81611dfa565b9050919050565b6000602082019050818103600083015261212b81611e1d565b9050919050565b6000602082019050818103600083015261214b81611e40565b9050919050565b6000602082019050818103600083015261216b81611e63565b9050919050565b6000602082019050818103600083015261218b81611e86565b9050919050565b600060208201905081810360008301526121ab81611ea9565b9050919050565b600060208201905081810360008301526121cb81611ecc565b9050919050565b600060208201905081810360008301526121eb81611eef565b9050919050565b6000602082019050818103600083015261220b81611f12565b9050919050565b6000602082019050818103600083015261222b81611f35565b9050919050565b6000602082019050818103600083015261224b81611f58565b9050919050565b60006020820190506122676000830184611f7b565b92915050565b6000612277612288565b905061228382826124da565b919050565b6000604051905090565b600067ffffffffffffffff8211156122ad576122ac612641565b5b6122b682612684565b9050602081019050919050565b600067ffffffffffffffff8211156122de576122dd612641565b5b6122e782612684565b9050602081019050919050565b600081519050919050565b600081519050919050565b600082825260208201905092915050565b600082825260208201905092915050565b600081905092915050565b60006123428261245c565b915061234d8361245c565b9250827fffffffffffffffffffffffffffffffffffffffffffffffffffffffffffffffff0382111561238257612381612585565b5b828201905092915050565b60006123988261245c565b91506123a38361245c565b9250826123b3576123b26125b4565b5b828204905092915050565b60006123c98261245c565b91506123d48361245c565b9250828210156123e7576123e6612585565b5b828203905092915050565b60006123fd8261243c565b9050919050565b60008115159050919050565b60007fffffffff0000000000000000000000000000000000000000000000000000000082169050919050565b600073ffffffffffffffffffffffffffffffffffffffff82169050919050565b6000819050919050565b82818337600083830152505050565b60005b83811015612493578082015181840152602081019050612478565b838111156124a2576000848401525b50505050565b600060028204905060018216806124c057607f821691505b602082108114156124d4576124d36125e3565b5b50919050565b6124e382612684565b810181811067ffffffffffffffff8211171561250257612501612641565b5b80604052505050565b60006125168261245c565b91507fffffffffffffffffffffffffffffffffffffffffffffffffffffffffffffffff82141561254957612548612585565b5b600182019050919050565b600061255f8261245c565b915061256a8361245c565b92508261257a576125796125b4565b5b828206905092915050565b7f4e487b7100000000000000000000000000000000000000000000000000000000600052601160045260246000fd5b7f4e487b7100000000000000000000000000000000000000000000000000000000600052601260045260246000fd5b7f4e487b7100000000000000000000000000000000000000000000000000000000600052602260045260246000fd5b7f4e487b7100000000000000000000000000000000000000000000000000000000600052603260045260246000fd5b7f4e487b7100000000000000000000000000000000000000000000000000000000600052604160045260246000fd5b600080fd5b600080fd5b600080fd5b600080fd5b6000601f19601f8301169050919050565b7f4552433732313a207472616e7366657220746f206e6f6e20455243373231526560008201527f63656976657220696d706c656d656e7465720000000000000000000000000000602082015250565b7f4552433732313a20746f6b656e20616c7265616479206d696e74656400000000600082015250565b7f4552433732313a207472616e7366657220746f20746865207a65726f2061646460008201527f7265737300000000000000000000000000000000000000000000000000000000602082015250565b7f4552433732313a20617070726f766520746f2063616c6c657200000000000000600082015250565b7f4552433732313a206f70657261746f7220717565727920666f72206e6f6e657860008201527f697374656e7420746f6b656e0000000000000000000000000000000000000000602082015250565b7f4552433732313a20617070726f76652063616c6c6572206973206e6f74206f7760008201527f6e6572206e6f7220617070726f76656420666f7220616c6c0000000000000000602082015250565b7f4552433732313a2062616c616e636520717565727920666f7220746865207a6560008201527f726f206164647265737300000000000000000000000000000000000000000000602082015250565b7f4552433732313a206f776e657220717565727920666f72206e6f6e657869737460008201527f656e7420746f6b656e0000000000000000000000000000000000000000000000602082015250565b7f45524337323155524953746f726167653a2055524920736574206f66206e6f6e60008201527f6578697374656e7420746f6b656e000000000000000000000000000000000000602082015250565b7f4552433732313a206d696e7420746f20746865207a65726f2061646472657373600082015250565b7f45524337323155524953746f726167653a2055524920717565727920666f722060008201527f6e6f6e6578697374656e7420746f6b656e000000000000000000000000000000602082015250565b7f4552433732313a20617070726f76656420717565727920666f72206e6f6e657860008201527f697374656e7420746f6b656e0000000000000000000000000000000000000000602082015250565b7f4552433732313a207472616e73666572206f6620746f6b656e2074686174206960008201527f73206e6f74206f776e0000000000000000000000000000000000000000000000602082015250565b7f4552433732314d657461646174613a2055524920717565727920666f72206e6f60008201527f6e6578697374656e7420746f6b656e0000000000000000000000000000000000602082015250565b7f4552433732313a20617070726f76616c20746f2063757272656e74206f776e6560008201527f7200000000000000000000000000000000000000000000000000000000000000602082015250565b7f4552433732313a207472616e736665722063616c6c6572206973206e6f74206f60008201527f776e6572206e6f7220617070726f766564000000000000000000000000000000602082015250565b612b1c816123f2565b8114612b2757600080fd5b50565b612b3381612404565b8114612b3e57600080fd5b50565b612b4a81612410565b8114612b5557600080fd5b50565b612b618161245c565b8114612b6c57600080fd5b5056fea264697066735822122003c04c799f88ea8ef03aa6e940b815c0e2a17bf29ca8fd81414b65ae79ee958664736f6c63430008070033",
  "linkReferences": {},
  "deployedLinkReferences": {}
}